{
  "contractName": "Hello",
  "abi": [
    {
      "constant": true,
      "inputs": [],
      "name": "hello",
      "outputs": [
        {
          "name": "",
          "type": "string"
        }
      ],
      "payable": false,
      "stateMutability": "pure",
      "type": "function"
    },
    {
      "constant": false,
      "inputs": [],
      "name": "pay",
      "outputs": [],
      "payable": true,
      "stateMutability": "payable",
      "type": "function"
    }
  ],
  "bytecode": "0x6060604052341561000f57600080fd5b6101a48061001e6000396000f30060606040526004361061004c576000357c0100000000000000000000000000000000000000000000000000000000900463ffffffff16806319ff1d21146100515780631b9265b8146100df575b600080fd5b341561005c57600080fd5b6100646100e9565b6040518080602001828103825283818151815260200191508051906020019080838360005b838110156100a4578082015181840152602081019050610089565b50505050905090810190601f1680156100d15780820380516001836020036101000a031916815260200191505b509250505060405180910390f35b6100e761012c565b005b6100f1610164565b6040805190810160405280600c81526020017f48656c6c6f20576f726c64210000000000000000000000000000000000000000815250905090565b3373ffffffffffffffffffffffffffffffffffffffff166108fc349081150290604051600060405180830381858888f1935050505050565b6020604051908101604052806000815250905600a165627a7a7230582010317f47ab5d5d375e4a63dcdbd430b1eef7c37cda0924cc40042bc0dc1ed68c0029",
  "source": "pragma solidity ^0.4.17;\n\ncontract Hello {\n  function hello() public pure returns(string) {\n    return \"Hello World!\";\n  }\n\tfunction pay() public payable {\n  \tmsg.sender.send(msg.value);\n  }\n}",
  "sourcePath": "/home/coiners/Scrivania/dApps/helloWorld/contracts/Hello.sol",
  "compiler": {
    "name": "solc",
    "version": "0.4.18+commit.9cf6e910.Emscripten.clang"
  },
  "schemaVersion": "1.0.1",
  "updatedAt": "2018-04-23T12:36:14.489Z"
}